{
  "contractName": "EtherVault",
  "abi": [
    {
      "inputs": [
        {
          "internalType": "address[]",
          "name": "minters",
          "type": "address[]"
        },
        {
          "internalType": "address[]",
          "name": "burners",
          "type": "address[]"
        }
      ],
      "stateMutability": "nonpayable",
      "type": "constructor"
    },
    {
      "anonymous": false,
      "inputs": [
        {
          "indexed": true,
          "internalType": "address",
          "name": "owner",
          "type": "address"
        },
        {
          "indexed": true,
          "internalType": "address",
          "name": "spender",
          "type": "address"
        },
        {
          "indexed": false,
          "internalType": "uint256",
          "name": "value",
          "type": "uint256"
        }
      ],
      "name": "Approval",
      "type": "event"
    },
    {
      "anonymous": false,
      "inputs": [
        {
          "indexed": true,
          "internalType": "bytes32",
          "name": "role",
          "type": "bytes32"
        },
        {
          "indexed": true,
          "internalType": "bytes32",
          "name": "previousAdminRole",
          "type": "bytes32"
        },
        {
          "indexed": true,
          "internalType": "bytes32",
          "name": "newAdminRole",
          "type": "bytes32"
        }
      ],
      "name": "RoleAdminChanged",
      "type": "event"
    },
    {
      "anonymous": false,
      "inputs": [
        {
          "indexed": true,
          "internalType": "bytes32",
          "name": "role",
          "type": "bytes32"
        },
        {
          "indexed": true,
          "internalType": "address",
          "name": "account",
          "type": "address"
        },
        {
          "indexed": true,
          "internalType": "address",
          "name": "sender",
          "type": "address"
        }
      ],
      "name": "RoleGranted",
      "type": "event"
    },
    {
      "anonymous": false,
      "inputs": [
        {
          "indexed": true,
          "internalType": "bytes32",
          "name": "role",
          "type": "bytes32"
        },
        {
          "indexed": true,
          "internalType": "address",
          "name": "account",
          "type": "address"
        },
        {
          "indexed": true,
          "internalType": "address",
          "name": "sender",
          "type": "address"
        }
      ],
      "name": "RoleRevoked",
      "type": "event"
    },
    {
      "anonymous": false,
      "inputs": [
        {
          "indexed": true,
          "internalType": "address",
          "name": "from",
          "type": "address"
        },
        {
          "indexed": true,
          "internalType": "address",
          "name": "to",
          "type": "address"
        },
        {
          "indexed": false,
          "internalType": "uint256",
          "name": "value",
          "type": "uint256"
        }
      ],
      "name": "Transfer",
      "type": "event"
    },
    {
      "anonymous": false,
      "inputs": [
        {
          "indexed": true,
          "internalType": "address",
          "name": "accountAddress",
          "type": "address"
        },
        {
          "indexed": false,
          "internalType": "uint256",
          "name": "weiAmount",
          "type": "uint256"
        }
      ],
      "name": "VaultActivated",
      "type": "event"
    },
    {
      "anonymous": false,
      "inputs": [
        {
          "indexed": true,
          "internalType": "address",
          "name": "accountAddress",
          "type": "address"
        },
        {
          "indexed": false,
          "internalType": "uint256",
          "name": "weiAmount",
          "type": "uint256"
        }
      ],
      "name": "VaultLiquidated",
      "type": "event"
    },
    {
      "inputs": [],
      "name": "BURNER_ROLE",
      "outputs": [
        {
          "internalType": "bytes32",
          "name": "",
          "type": "bytes32"
        }
      ],
      "stateMutability": "view",
      "type": "function",
      "constant": true
    },
    {
      "inputs": [],
      "name": "DEFAULT_ADMIN_ROLE",
      "outputs": [
        {
          "internalType": "bytes32",
          "name": "",
          "type": "bytes32"
        }
      ],
      "stateMutability": "view",
      "type": "function",
      "constant": true
    },
    {
      "inputs": [],
      "name": "MINTER_ROLE",
      "outputs": [
        {
          "internalType": "bytes32",
          "name": "",
          "type": "bytes32"
        }
      ],
      "stateMutability": "view",
      "type": "function",
      "constant": true
    },
    {
      "inputs": [
        {
          "internalType": "address",
          "name": "owner",
          "type": "address"
        },
        {
          "internalType": "address",
          "name": "spender",
          "type": "address"
        }
      ],
      "name": "allowance",
      "outputs": [
        {
          "internalType": "uint256",
          "name": "",
          "type": "uint256"
        }
      ],
      "stateMutability": "view",
      "type": "function",
      "constant": true
    },
    {
      "inputs": [
        {
          "internalType": "address",
          "name": "spender",
          "type": "address"
        },
        {
          "internalType": "uint256",
          "name": "amount",
          "type": "uint256"
        }
      ],
      "name": "approve",
      "outputs": [
        {
          "internalType": "bool",
          "name": "",
          "type": "bool"
        }
      ],
      "stateMutability": "nonpayable",
      "type": "function"
    },
    {
      "inputs": [
        {
          "internalType": "address",
          "name": "account",
          "type": "address"
        }
      ],
      "name": "balanceOf",
      "outputs": [
        {
          "internalType": "uint256",
          "name": "",
          "type": "uint256"
        }
      ],
      "stateMutability": "view",
      "type": "function",
      "constant": true
    },
    {
      "inputs": [],
      "name": "decimals",
      "outputs": [
        {
          "internalType": "uint8",
          "name": "",
          "type": "uint8"
        }
      ],
      "stateMutability": "view",
      "type": "function",
      "constant": true
    },
    {
      "inputs": [
        {
          "internalType": "address",
          "name": "spender",
          "type": "address"
        },
        {
          "internalType": "uint256",
          "name": "subtractedValue",
          "type": "uint256"
        }
      ],
      "name": "decreaseAllowance",
      "outputs": [
        {
          "internalType": "bool",
          "name": "",
          "type": "bool"
        }
      ],
      "stateMutability": "nonpayable",
      "type": "function"
    },
    {
      "inputs": [
        {
          "internalType": "bytes32",
          "name": "role",
          "type": "bytes32"
        }
      ],
      "name": "getRoleAdmin",
      "outputs": [
        {
          "internalType": "bytes32",
          "name": "",
          "type": "bytes32"
        }
      ],
      "stateMutability": "view",
      "type": "function",
      "constant": true
    },
    {
      "inputs": [
        {
          "internalType": "bytes32",
          "name": "role",
          "type": "bytes32"
        },
        {
          "internalType": "address",
          "name": "account",
          "type": "address"
        }
      ],
      "name": "grantRole",
      "outputs": [],
      "stateMutability": "nonpayable",
      "type": "function"
    },
    {
      "inputs": [
        {
          "internalType": "bytes32",
          "name": "role",
          "type": "bytes32"
        },
        {
          "internalType": "address",
          "name": "account",
          "type": "address"
        }
      ],
      "name": "hasRole",
      "outputs": [
        {
          "internalType": "bool",
          "name": "",
          "type": "bool"
        }
      ],
      "stateMutability": "view",
      "type": "function",
      "constant": true
    },
    {
      "inputs": [
        {
          "internalType": "address",
          "name": "spender",
          "type": "address"
        },
        {
          "internalType": "uint256",
          "name": "addedValue",
          "type": "uint256"
        }
      ],
      "name": "increaseAllowance",
      "outputs": [
        {
          "internalType": "bool",
          "name": "",
          "type": "bool"
        }
      ],
      "stateMutability": "nonpayable",
      "type": "function"
    },
    {
      "inputs": [],
      "name": "name",
      "outputs": [
        {
          "internalType": "string",
          "name": "",
          "type": "string"
        }
      ],
      "stateMutability": "view",
      "type": "function",
      "constant": true
    },
    {
      "inputs": [],
      "name": "rate",
      "outputs": [
        {
          "internalType": "uint256",
          "name": "",
          "type": "uint256"
        }
      ],
      "stateMutability": "view",
      "type": "function",
      "constant": true
    },
    {
      "inputs": [
        {
          "internalType": "bytes32",
          "name": "role",
          "type": "bytes32"
        },
        {
          "internalType": "address",
          "name": "account",
          "type": "address"
        }
      ],
      "name": "renounceRole",
      "outputs": [],
      "stateMutability": "nonpayable",
      "type": "function"
    },
    {
      "inputs": [
        {
          "internalType": "bytes32",
          "name": "role",
          "type": "bytes32"
        },
        {
          "internalType": "address",
          "name": "account",
          "type": "address"
        }
      ],
      "name": "revokeRole",
      "outputs": [],
      "stateMutability": "nonpayable",
      "type": "function"
    },
    {
      "inputs": [
        {
          "internalType": "bytes4",
          "name": "interfaceId",
          "type": "bytes4"
        }
      ],
      "name": "supportsInterface",
      "outputs": [
        {
          "internalType": "bool",
          "name": "",
          "type": "bool"
        }
      ],
      "stateMutability": "view",
      "type": "function",
      "constant": true
    },
    {
      "inputs": [],
      "name": "symbol",
      "outputs": [
        {
          "internalType": "string",
          "name": "",
          "type": "string"
        }
      ],
      "stateMutability": "view",
      "type": "function",
      "constant": true
    },
    {
      "inputs": [],
      "name": "totalSupply",
      "outputs": [
        {
          "internalType": "uint256",
          "name": "",
          "type": "uint256"
        }
      ],
      "stateMutability": "view",
      "type": "function",
      "constant": true
    },
    {
      "inputs": [
        {
          "internalType": "address",
          "name": "recipient",
          "type": "address"
        },
        {
          "internalType": "uint256",
          "name": "amount",
          "type": "uint256"
        }
      ],
      "name": "transfer",
      "outputs": [
        {
          "internalType": "bool",
          "name": "",
          "type": "bool"
        }
      ],
      "stateMutability": "nonpayable",
      "type": "function"
    },
    {
      "inputs": [
        {
          "internalType": "address",
          "name": "sender",
          "type": "address"
        },
        {
          "internalType": "address",
          "name": "recipient",
          "type": "address"
        },
        {
          "internalType": "uint256",
          "name": "amount",
          "type": "uint256"
        }
      ],
      "name": "transferFrom",
      "outputs": [
        {
          "internalType": "bool",
          "name": "",
          "type": "bool"
        }
      ],
      "stateMutability": "nonpayable",
      "type": "function"
    },
    {
      "inputs": [],
      "name": "activateVault",
      "outputs": [],
      "stateMutability": "payable",
      "type": "function",
      "payable": true
    },
    {
      "inputs": [
        {
          "internalType": "uint256",
          "name": "amount",
          "type": "uint256"
        }
      ],
      "name": "liquidateVault",
      "outputs": [],
      "stateMutability": "payable",
      "type": "function",
      "payable": true
    },
    {
      "inputs": [],
      "name": "vaultBalance",
      "outputs": [
        {
          "internalType": "uint256",
          "name": "",
          "type": "uint256"
        }
      ],
      "stateMutability": "view",
      "type": "function",
      "constant": true
    },
    {
      "inputs": [
        {
          "internalType": "address",
          "name": "accountAddress",
          "type": "address"
        }
      ],
      "name": "vaultBalanceOf",
      "outputs": [
        {
          "internalType": "uint256",
          "name": "",
          "type": "uint256"
        }
      ],
      "stateMutability": "view",
      "type": "function",
      "constant": true
    },
    {
      "inputs": [],
      "name": "contractBalance",
      "outputs": [
        {
          "internalType": "uint256",
          "name": "",
          "type": "uint256"
        }
      ],
      "stateMutability": "view",
      "type": "function",
      "constant": true
    },
    {
      "inputs": [
        {
          "internalType": "address",
          "name": "to",
          "type": "address"
        },
        {
          "internalType": "uint256",
          "name": "amount",
          "type": "uint256"
        }
      ],
      "name": "mint",
      "outputs": [],
      "stateMutability": "nonpayable",
      "type": "function"
    },
    {
      "inputs": [
        {
          "internalType": "address",
          "name": "from",
          "type": "address"
        },
        {
          "internalType": "uint256",
          "name": "amount",
          "type": "uint256"
        }
      ],
      "name": "burn",
      "outputs": [],
      "stateMutability": "nonpayable",
      "type": "function"
    }
  ],
  "bytecode": "0x6080604052600a6006553480156200001657600080fd5b50604051620035723803806200357283398181016040528101906200003c9190620004f2565b6040518060400160405280600581526020017f5661756c740000000000000000000000000000000000000000000000000000008152506040518060400160405280600381526020017f45545600000000000000000000000000000000000000000000000000000000008152508160039080519060200190620000c092919062000389565b508060049080519060200190620000d992919062000389565b50505060005b825181101562000170576200015c7f9f2df0fed2c77648de5860a4cc508cd0818c85b8b8a1ab4ceeef8d981c8956a684838151811062000148577f4e487b7100000000000000000000000000000000000000000000000000000000600052603260045260246000fd5b60200260200101516200020e60201b60201c565b80620001689062000667565b9050620000df565b5060005b81518110156200020557620001f17f3c11d16cbaffd01df69ce1c404f6340ee057498f5f00246190ea54220576a848838381518110620001dd577f4e487b7100000000000000000000000000000000000000000000000000000000600052603260045260246000fd5b60200260200101516200020e60201b60201c565b80620001fd9062000667565b905062000174565b5050506200076d565b6200022082826200022460201b60201c565b5050565b6200023682826200031660201b60201c565b620003125760016005600084815260200190815260200160002060000160008373ffffffffffffffffffffffffffffffffffffffff1673ffffffffffffffffffffffffffffffffffffffff16815260200190815260200160002060006101000a81548160ff021916908315150217905550620002b76200038160201b60201c565b73ffffffffffffffffffffffffffffffffffffffff168173ffffffffffffffffffffffffffffffffffffffff16837f2f8788117e7eff1d82e926ec794901d17c78024a50270940304540a733656f0d60405160405180910390a45b5050565b60006005600084815260200190815260200160002060000160008373ffffffffffffffffffffffffffffffffffffffff1673ffffffffffffffffffffffffffffffffffffffff16815260200190815260200160002060009054906101000a900460ff16905092915050565b600033905090565b8280546200039790620005fb565b90600052602060002090601f016020900481019282620003bb576000855562000407565b82601f10620003d657805160ff191683800117855562000407565b8280016001018555821562000407579182015b8281111562000406578251825591602001919060010190620003e9565b5b5090506200041691906200041a565b5090565b5b80821115620004355760008160009055506001016200041b565b5090565b6000620004506200044a846200058e565b62000565565b905080838252602082019050828560208602820111156200047057600080fd5b60005b85811015620004a45781620004898882620004ae565b84526020840193506020830192505060018101905062000473565b5050509392505050565b600081519050620004bf8162000753565b92915050565b600082601f830112620004d757600080fd5b8151620004e984826020860162000439565b91505092915050565b600080604083850312156200050657600080fd5b600083015167ffffffffffffffff8111156200052157600080fd5b6200052f85828601620004c5565b925050602083015167ffffffffffffffff8111156200054d57600080fd5b6200055b85828601620004c5565b9150509250929050565b60006200057162000584565b90506200057f828262000631565b919050565b6000604051905090565b600067ffffffffffffffff821115620005ac57620005ab62000713565b5b602082029050602081019050919050565b6000620005ca82620005d1565b9050919050565b600073ffffffffffffffffffffffffffffffffffffffff82169050919050565b6000819050919050565b600060028204905060018216806200061457607f821691505b602082108114156200062b576200062a620006e4565b5b50919050565b6200063c8262000742565b810181811067ffffffffffffffff821117156200065e576200065d62000713565b5b80604052505050565b60006200067482620005f1565b91507fffffffffffffffffffffffffffffffffffffffffffffffffffffffffffffffff821415620006aa57620006a9620006b5565b5b600182019050919050565b7f4e487b7100000000000000000000000000000000000000000000000000000000600052601160045260246000fd5b7f4e487b7100000000000000000000000000000000000000000000000000000000600052602260045260246000fd5b7f4e487b7100000000000000000000000000000000000000000000000000000000600052604160045260246000fd5b6000601f19601f8301169050919050565b6200075e81620005bd565b81146200076a57600080fd5b50565b612df5806200077d6000396000f3fe6080604052600436106101b75760003560e01c806340c10f19116100ec578063a217fddf1161008a578063d539139311610064578063d539139314610661578063d547741f1461068c578063dd62ed3e146106b5578063e9ba6068146106f2576101b7565b8063a217fddf146105bc578063a457c2d7146105e7578063a9059cbb14610624576101b7565b806390cf0bba116100c657806390cf0bba1461050f57806391d148541461052b57806395d89b41146105685780639dc29fac14610593576101b7565b806340c10f191461047e57806370a08231146104a75780638b7afe2e146104e4576101b7565b8063282c51f311610159578063313ce56711610133578063313ce567146103b0578063313f85e8146103db57806336568abe146104185780633950935114610441576101b7565b8063282c51f3146103315780632c4e722e1461035c5780632f2ff15d14610387576101b7565b80630bf6cc08116101955780630bf6cc081461026157806318160ddd1461028c57806323b872dd146102b7578063248a9ca3146102f4576101b7565b806301ffc9a7146101bc57806306fdde03146101f9578063095ea7b314610224575b600080fd5b3480156101c857600080fd5b506101e360048036038101906101de91906120cd565b6106fc565b6040516101f09190612467565b60405180910390f35b34801561020557600080fd5b5061020e610776565b60405161021b919061249d565b60405180910390f35b34801561023057600080fd5b5061024b6004803603810190610246919061202c565b610808565b6040516102589190612467565b60405180910390f35b34801561026d57600080fd5b50610276610826565b604051610283919061267f565b60405180910390f35b34801561029857600080fd5b506102a161086d565b6040516102ae919061267f565b60405180910390f35b3480156102c357600080fd5b506102de60048036038101906102d99190611fdd565b610877565b6040516102eb9190612467565b60405180910390f35b34801561030057600080fd5b5061031b60048036038101906103169190612068565b61096f565b6040516103289190612482565b60405180910390f35b34801561033d57600080fd5b5061034661098f565b6040516103539190612482565b60405180910390f35b34801561036857600080fd5b506103716109b3565b60405161037e919061267f565b60405180910390f35b34801561039357600080fd5b506103ae60048036038101906103a99190612091565b6109b9565b005b3480156103bc57600080fd5b506103c56109e2565b6040516103d2919061269a565b60405180910390f35b3480156103e757600080fd5b5061040260048036038101906103fd9190611f78565b6109eb565b60405161040f919061267f565b60405180910390f35b34801561042457600080fd5b5061043f600480360381019061043a9190612091565b610a34565b005b34801561044d57600080fd5b506104686004803603810190610463919061202c565b610ab7565b6040516104759190612467565b60405180910390f35b34801561048a57600080fd5b506104a560048036038101906104a0919061202c565b610b63565b005b3480156104b357600080fd5b506104ce60048036038101906104c99190611f78565b610ba4565b6040516104db919061267f565b60405180910390f35b3480156104f057600080fd5b506104f9610bec565b604051610506919061267f565b60405180910390f35b610529600480360381019061052491906120f6565b610bf4565b005b34801561053757600080fd5b50610552600480360381019061054d9190612091565b610de6565b60405161055f9190612467565b60405180910390f35b34801561057457600080fd5b5061057d610e51565b60405161058a919061249d565b60405180910390f35b34801561059f57600080fd5b506105ba60048036038101906105b5919061202c565b610ee3565b005b3480156105c857600080fd5b506105d1610f24565b6040516105de9190612482565b60405180910390f35b3480156105f357600080fd5b5061060e6004803603810190610609919061202c565b610f2b565b60405161061b9190612467565b60405180910390f35b34801561063057600080fd5b5061064b6004803603810190610646919061202c565b611016565b6040516106589190612467565b60405180910390f35b34801561066d57600080fd5b50610676611034565b6040516106839190612482565b60405180910390f35b34801561069857600080fd5b506106b360048036038101906106ae9190612091565b611058565b005b3480156106c157600080fd5b506106dc60048036038101906106d79190611fa1565b611081565b6040516106e9919061267f565b60405180910390f35b6106fa611108565b005b60007f7965db0b000000000000000000000000000000000000000000000000000000007bffffffffffffffffffffffffffffffffffffffffffffffffffffffff1916827bffffffffffffffffffffffffffffffffffffffffffffffffffffffff1916148061076f575061076e826111cb565b5b9050919050565b606060038054610785906128b3565b80601f01602080910402602001604051908101604052809291908181526020018280546107b1906128b3565b80156107fe5780601f106107d3576101008083540402835291602001916107fe565b820191906000526020600020905b8154815290600101906020018083116107e157829003601f168201915b5050505050905090565b600061081c610815611235565b848461123d565b6001905092915050565b6000600760003373ffffffffffffffffffffffffffffffffffffffff1673ffffffffffffffffffffffffffffffffffffffff16815260200190815260200160002054905090565b6000600254905090565b6000610884848484611408565b6000600160008673ffffffffffffffffffffffffffffffffffffffff1673ffffffffffffffffffffffffffffffffffffffff16815260200190815260200160002060006108cf611235565b73ffffffffffffffffffffffffffffffffffffffff1673ffffffffffffffffffffffffffffffffffffffff1681526020019081526020016000205490508281101561094f576040517f08c379a00000000000000000000000000000000000000000000000000000000081526004016109469061257f565b60405180910390fd5b6109638561095b611235565b85840361123d565b60019150509392505050565b600060056000838152602001908152602001600020600101549050919050565b7f3c11d16cbaffd01df69ce1c404f6340ee057498f5f00246190ea54220576a84881565b60065481565b6109c28261096f565b6109d3816109ce611235565b611689565b6109dd8383611726565b505050565b60006012905090565b6000600760008373ffffffffffffffffffffffffffffffffffffffff1673ffffffffffffffffffffffffffffffffffffffff168152602001908152602001600020549050919050565b610a3c611235565b73ffffffffffffffffffffffffffffffffffffffff168173ffffffffffffffffffffffffffffffffffffffff1614610aa9576040517f08c379a0000000000000000000000000000000000000000000000000000000008152600401610aa09061263f565b60405180910390fd5b610ab38282611807565b5050565b6000610b59610ac4611235565b848460016000610ad2611235565b73ffffffffffffffffffffffffffffffffffffffff1673ffffffffffffffffffffffffffffffffffffffff16815260200190815260200160002060008873ffffffffffffffffffffffffffffffffffffffff1673ffffffffffffffffffffffffffffffffffffffff16815260200190815260200160002054610b5491906126e7565b61123d565b6001905092915050565b7f9f2df0fed2c77648de5860a4cc508cd0818c85b8b8a1ab4ceeef8d981c8956a6610b9581610b90611235565b611689565b610b9f83836118e9565b505050565b60008060008373ffffffffffffffffffffffffffffffffffffffff1673ffffffffffffffffffffffffffffffffffffffff168152602001908152602001600020549050919050565b600047905090565b338180600760008473ffffffffffffffffffffffffffffffffffffffff1673ffffffffffffffffffffffffffffffffffffffff168152602001908152602001600020541015610c78576040517f08c379a0000000000000000000000000000000000000000000000000000000008152600401610c6f9061255f565b60405180910390fd5b82600760003373ffffffffffffffffffffffffffffffffffffffff1673ffffffffffffffffffffffffffffffffffffffff1681526020019081526020016000206000828254610cc79190612797565b92505081905550610ce53060065485610ce0919061273d565b611016565b5060003373ffffffffffffffffffffffffffffffffffffffff1684604051610d0c90612418565b60006040518083038185875af1925050503d8060008114610d49576040519150601f19603f3d011682016040523d82523d6000602084013e610d4e565b606091505b5050905080610d92576040517f08c379a0000000000000000000000000000000000000000000000000000000008152600401610d89906125df565b60405180910390fd5b3373ffffffffffffffffffffffffffffffffffffffff167f54047e1fbd97c7c3a1208df001f1b5c6c3e64e726907d2f8342f6b3946f4b83f85604051610dd8919061267f565b60405180910390a250505050565b60006005600084815260200190815260200160002060000160008373ffffffffffffffffffffffffffffffffffffffff1673ffffffffffffffffffffffffffffffffffffffff16815260200190815260200160002060009054906101000a900460ff16905092915050565b606060048054610e60906128b3565b80601f0160208091040260200160405190810160405280929190818152602001828054610e8c906128b3565b8015610ed95780601f10610eae57610100808354040283529160200191610ed9565b820191906000526020600020905b815481529060010190602001808311610ebc57829003601f168201915b5050505050905090565b7f3c11d16cbaffd01df69ce1c404f6340ee057498f5f00246190ea54220576a848610f1581610f10611235565b611689565b610f1f8383611a49565b505050565b6000801b81565b60008060016000610f3a611235565b73ffffffffffffffffffffffffffffffffffffffff1673ffffffffffffffffffffffffffffffffffffffff16815260200190815260200160002060008573ffffffffffffffffffffffffffffffffffffffff1673ffffffffffffffffffffffffffffffffffffffff16815260200190815260200160002054905082811015610ff7576040517f08c379a0000000000000000000000000000000000000000000000000000000008152600401610fee9061261f565b60405180910390fd5b61100b611002611235565b8585840361123d565b600191505092915050565b600061102a611023611235565b8484611408565b6001905092915050565b7f9f2df0fed2c77648de5860a4cc508cd0818c85b8b8a1ab4ceeef8d981c8956a681565b6110618261096f565b6110728161106d611235565b611689565b61107c8383611807565b505050565b6000600160008473ffffffffffffffffffffffffffffffffffffffff1673ffffffffffffffffffffffffffffffffffffffff16815260200190815260200160002060008373ffffffffffffffffffffffffffffffffffffffff1673ffffffffffffffffffffffffffffffffffffffff16815260200190815260200160002054905092915050565b34600760003373ffffffffffffffffffffffffffffffffffffffff1673ffffffffffffffffffffffffffffffffffffffff168152602001908152602001600020600082825461115791906126e7565b9250508190555060006006543461116e919061273d565b905061117a33826118e9565b3373ffffffffffffffffffffffffffffffffffffffff167ff6f143e820ae4cdce38085e2fa45fad01e9cb764b86aabc5eb62b4014d84a8b2346040516111c0919061267f565b60405180910390a250565b60007f01ffc9a7000000000000000000000000000000000000000000000000000000007bffffffffffffffffffffffffffffffffffffffffffffffffffffffff1916827bffffffffffffffffffffffffffffffffffffffffffffffffffffffff1916149050919050565b600033905090565b600073ffffffffffffffffffffffffffffffffffffffff168373ffffffffffffffffffffffffffffffffffffffff1614156112ad576040517f08c379a00000000000000000000000000000000000000000000000000000000081526004016112a4906125ff565b60405180910390fd5b600073ffffffffffffffffffffffffffffffffffffffff168273ffffffffffffffffffffffffffffffffffffffff16141561131d576040517f08c379a00000000000000000000000000000000000000000000000000000000081526004016113149061251f565b60405180910390fd5b80600160008573ffffffffffffffffffffffffffffffffffffffff1673ffffffffffffffffffffffffffffffffffffffff16815260200190815260200160002060008473ffffffffffffffffffffffffffffffffffffffff1673ffffffffffffffffffffffffffffffffffffffff168152602001908152602001600020819055508173ffffffffffffffffffffffffffffffffffffffff168373ffffffffffffffffffffffffffffffffffffffff167f8c5be1e5ebec7d5bd14f71427d1e84f3dd0314c0f7b2291e5b200ac8c7c3b925836040516113fb919061267f565b60405180910390a3505050565b600073ffffffffffffffffffffffffffffffffffffffff168373ffffffffffffffffffffffffffffffffffffffff161415611478576040517f08c379a000000000000000000000000000000000000000000000000000000000815260040161146f906125bf565b60405180910390fd5b600073ffffffffffffffffffffffffffffffffffffffff168273ffffffffffffffffffffffffffffffffffffffff1614156114e8576040517f08c379a00000000000000000000000000000000000000000000000000000000081526004016114df906124df565b60405180910390fd5b6114f3838383611c20565b60008060008573ffffffffffffffffffffffffffffffffffffffff1673ffffffffffffffffffffffffffffffffffffffff16815260200190815260200160002054905081811015611579576040517f08c379a00000000000000000000000000000000000000000000000000000000081526004016115709061253f565b60405180910390fd5b8181036000808673ffffffffffffffffffffffffffffffffffffffff1673ffffffffffffffffffffffffffffffffffffffff16815260200190815260200160002081905550816000808573ffffffffffffffffffffffffffffffffffffffff1673ffffffffffffffffffffffffffffffffffffffff168152602001908152602001600020600082825461160c91906126e7565b925050819055508273ffffffffffffffffffffffffffffffffffffffff168473ffffffffffffffffffffffffffffffffffffffff167fddf252ad1be2c89b69c2b068fc378daa952ba7f163c4a11628f55a4df523b3ef84604051611670919061267f565b60405180910390a3611683848484611c25565b50505050565b6116938282610de6565b611722576116b88173ffffffffffffffffffffffffffffffffffffffff166014611c2a565b6116c68360001c6020611c2a565b6040516020016116d792919061242d565b6040516020818303038152906040526040517f08c379a0000000000000000000000000000000000000000000000000000000008152600401611719919061249d565b60405180910390fd5b5050565b6117308282610de6565b6118035760016005600084815260200190815260200160002060000160008373ffffffffffffffffffffffffffffffffffffffff1673ffffffffffffffffffffffffffffffffffffffff16815260200190815260200160002060006101000a81548160ff0219169083151502179055506117a8611235565b73ffffffffffffffffffffffffffffffffffffffff168173ffffffffffffffffffffffffffffffffffffffff16837f2f8788117e7eff1d82e926ec794901d17c78024a50270940304540a733656f0d60405160405180910390a45b5050565b6118118282610de6565b156118e55760006005600084815260200190815260200160002060000160008373ffffffffffffffffffffffffffffffffffffffff1673ffffffffffffffffffffffffffffffffffffffff16815260200190815260200160002060006101000a81548160ff02191690831515021790555061188a611235565b73ffffffffffffffffffffffffffffffffffffffff168173ffffffffffffffffffffffffffffffffffffffff16837ff6391f5c32d9c69d2a47ea670b442974b53935d1edc7fd64eb21e047a839171b60405160405180910390a45b5050565b600073ffffffffffffffffffffffffffffffffffffffff168273ffffffffffffffffffffffffffffffffffffffff161415611959576040517f08c379a00000000000000000000000000000000000000000000000000000000081526004016119509061265f565b60405180910390fd5b61196560008383611c20565b806002600082825461197791906126e7565b92505081905550806000808473ffffffffffffffffffffffffffffffffffffffff1673ffffffffffffffffffffffffffffffffffffffff16815260200190815260200160002060008282546119cc91906126e7565b925050819055508173ffffffffffffffffffffffffffffffffffffffff16600073ffffffffffffffffffffffffffffffffffffffff167fddf252ad1be2c89b69c2b068fc378daa952ba7f163c4a11628f55a4df523b3ef83604051611a31919061267f565b60405180910390a3611a4560008383611c25565b5050565b600073ffffffffffffffffffffffffffffffffffffffff168273ffffffffffffffffffffffffffffffffffffffff161415611ab9576040517f08c379a0000000000000000000000000000000000000000000000000000000008152600401611ab09061259f565b60405180910390fd5b611ac582600083611c20565b60008060008473ffffffffffffffffffffffffffffffffffffffff1673ffffffffffffffffffffffffffffffffffffffff16815260200190815260200160002054905081811015611b4b576040517f08c379a0000000000000000000000000000000000000000000000000000000008152600401611b42906124ff565b60405180910390fd5b8181036000808573ffffffffffffffffffffffffffffffffffffffff1673ffffffffffffffffffffffffffffffffffffffff168152602001908152602001600020819055508160026000828254611ba29190612797565b92505081905550600073ffffffffffffffffffffffffffffffffffffffff168373ffffffffffffffffffffffffffffffffffffffff167fddf252ad1be2c89b69c2b068fc378daa952ba7f163c4a11628f55a4df523b3ef84604051611c07919061267f565b60405180910390a3611c1b83600084611c25565b505050565b505050565b505050565b606060006002836002611c3d919061273d565b611c4791906126e7565b67ffffffffffffffff811115611c86577f4e487b7100000000000000000000000000000000000000000000000000000000600052604160045260246000fd5b6040519080825280601f01601f191660200182016040528015611cb85781602001600182028036833780820191505090505b5090507f300000000000000000000000000000000000000000000000000000000000000081600081518110611d16577f4e487b7100000000000000000000000000000000000000000000000000000000600052603260045260246000fd5b60200101907effffffffffffffffffffffffffffffffffffffffffffffffffffffffffffff1916908160001a9053507f780000000000000000000000000000000000000000000000000000000000000081600181518110611da0577f4e487b7100000000000000000000000000000000000000000000000000000000600052603260045260246000fd5b60200101907effffffffffffffffffffffffffffffffffffffffffffffffffffffffffffff1916908160001a90535060006001846002611de0919061273d565b611dea91906126e7565b90505b6001811115611ed6577f3031323334353637383961626364656600000000000000000000000000000000600f861660108110611e52577f4e487b7100000000000000000000000000000000000000000000000000000000600052603260045260246000fd5b1a60f81b828281518110611e8f577f4e487b7100000000000000000000000000000000000000000000000000000000600052603260045260246000fd5b60200101907effffffffffffffffffffffffffffffffffffffffffffffffffffffffffffff1916908160001a905350600485901c945080611ecf90612889565b9050611ded565b5060008414611f1a576040517f08c379a0000000000000000000000000000000000000000000000000000000008152600401611f11906124bf565b60405180910390fd5b8091505092915050565b600081359050611f3381612d63565b92915050565b600081359050611f4881612d7a565b92915050565b600081359050611f5d81612d91565b92915050565b600081359050611f7281612da8565b92915050565b600060208284031215611f8a57600080fd5b6000611f9884828501611f24565b91505092915050565b60008060408385031215611fb457600080fd5b6000611fc285828601611f24565b9250506020611fd385828601611f24565b9150509250929050565b600080600060608486031215611ff257600080fd5b600061200086828701611f24565b935050602061201186828701611f24565b925050604061202286828701611f63565b9150509250925092565b6000806040838503121561203f57600080fd5b600061204d85828601611f24565b925050602061205e85828601611f63565b9150509250929050565b60006020828403121561207a57600080fd5b600061208884828501611f39565b91505092915050565b600080604083850312156120a457600080fd5b60006120b285828601611f39565b92505060206120c385828601611f24565b9150509250929050565b6000602082840312156120df57600080fd5b60006120ed84828501611f4e565b91505092915050565b60006020828403121561210857600080fd5b600061211684828501611f63565b91505092915050565b612128816127dd565b82525050565b612137816127e9565b82525050565b6000612148826126b5565b61215281856126cb565b9350612162818560208601612856565b61216b81612943565b840191505092915050565b6000612181826126b5565b61218b81856126dc565b935061219b818560208601612856565b80840191505092915050565b60006121b46020836126cb565b91506121bf82612954565b602082019050919050565b60006121d76023836126cb565b91506121e28261297d565b604082019050919050565b60006121fa6022836126cb565b9150612205826129cc565b604082019050919050565b600061221d6022836126cb565b915061222882612a1b565b604082019050919050565b60006122406026836126cb565b915061224b82612a6a565b604082019050919050565b6000612263601a836126cb565b915061226e82612ab9565b602082019050919050565b60006122866028836126cb565b915061229182612ae2565b604082019050919050565b60006122a96021836126cb565b91506122b482612b31565b604082019050919050565b60006122cc6025836126cb565b91506122d782612b80565b604082019050919050565b60006122ef600f836126cb565b91506122fa82612bcf565b602082019050919050565b60006123126000836126c0565b915061231d82612bf8565b600082019050919050565b60006123356024836126cb565b915061234082612bfb565b604082019050919050565b60006123586017836126dc565b915061236382612c4a565b601782019050919050565b600061237b6025836126cb565b915061238682612c73565b604082019050919050565b600061239e6011836126dc565b91506123a982612cc2565b601182019050919050565b60006123c1602f836126cb565b91506123cc82612ceb565b604082019050919050565b60006123e4601f836126cb565b91506123ef82612d3a565b602082019050919050565b6124038161283f565b82525050565b61241281612849565b82525050565b600061242382612305565b9150819050919050565b60006124388261234b565b91506124448285612176565b915061244f82612391565b915061245b8284612176565b91508190509392505050565b600060208201905061247c600083018461211f565b92915050565b6000602082019050612497600083018461212e565b92915050565b600060208201905081810360008301526124b7818461213d565b905092915050565b600060208201905081810360008301526124d8816121a7565b9050919050565b600060208201905081810360008301526124f8816121ca565b9050919050565b60006020820190508181036000830152612518816121ed565b9050919050565b6000602082019050818103600083015261253881612210565b9050919050565b6000602082019050818103600083015261255881612233565b9050919050565b6000602082019050818103600083015261257881612256565b9050919050565b6000602082019050818103600083015261259881612279565b9050919050565b600060208201905081810360008301526125b88161229c565b9050919050565b600060208201905081810360008301526125d8816122bf565b9050919050565b600060208201905081810360008301526125f8816122e2565b9050919050565b6000602082019050818103600083015261261881612328565b9050919050565b600060208201905081810360008301526126388161236e565b9050919050565b60006020820190508181036000830152612658816123b4565b9050919050565b60006020820190508181036000830152612678816123d7565b9050919050565b600060208201905061269460008301846123fa565b92915050565b60006020820190506126af6000830184612409565b92915050565b600081519050919050565b600081905092915050565b600082825260208201905092915050565b600081905092915050565b60006126f28261283f565b91506126fd8361283f565b9250827fffffffffffffffffffffffffffffffffffffffffffffffffffffffffffffffff03821115612732576127316128e5565b5b828201905092915050565b60006127488261283f565b91506127538361283f565b9250817fffffffffffffffffffffffffffffffffffffffffffffffffffffffffffffffff048311821515161561278c5761278b6128e5565b5b828202905092915050565b60006127a28261283f565b91506127ad8361283f565b9250828210156127c0576127bf6128e5565b5b828203905092915050565b60006127d68261281f565b9050919050565b60008115159050919050565b6000819050919050565b60007fffffffff0000000000000000000000000000000000000000000000000000000082169050919050565b600073ffffffffffffffffffffffffffffffffffffffff82169050919050565b6000819050919050565b600060ff82169050919050565b60005b83811015612874578082015181840152602081019050612859565b83811115612883576000848401525b50505050565b60006128948261283f565b915060008214156128a8576128a76128e5565b5b600182039050919050565b600060028204905060018216806128cb57607f821691505b602082108114156128df576128de612914565b5b50919050565b7f4e487b7100000000000000000000000000000000000000000000000000000000600052601160045260246000fd5b7f4e487b7100000000000000000000000000000000000000000000000000000000600052602260045260246000fd5b6000601f19601f8301169050919050565b7f537472696e67733a20686578206c656e67746820696e73756666696369656e74600082015250565b7f45524332303a207472616e7366657220746f20746865207a65726f206164647260008201527f6573730000000000000000000000000000000000000000000000000000000000602082015250565b7f45524332303a206275726e20616d6f756e7420657863656564732062616c616e60008201527f6365000000000000000000000000000000000000000000000000000000000000602082015250565b7f45524332303a20617070726f766520746f20746865207a65726f20616464726560008201527f7373000000000000000000000000000000000000000000000000000000000000602082015250565b7f45524332303a207472616e7366657220616d6f756e742065786365656473206260008201527f616c616e63650000000000000000000000000000000000000000000000000000602082015250565b7f496e73756666696369656e742065746865722062616c616e6365000000000000600082015250565b7f45524332303a207472616e7366657220616d6f756e742065786365656473206160008201527f6c6c6f77616e6365000000000000000000000000000000000000000000000000602082015250565b7f45524332303a206275726e2066726f6d20746865207a65726f2061646472657360008201527f7300000000000000000000000000000000000000000000000000000000000000602082015250565b7f45524332303a207472616e736665722066726f6d20746865207a65726f20616460008201527f6472657373000000000000000000000000000000000000000000000000000000602082015250565b7f4661696c6564207472616e736665720000000000000000000000000000000000600082015250565b50565b7f45524332303a20617070726f76652066726f6d20746865207a65726f2061646460008201527f7265737300000000000000000000000000000000000000000000000000000000602082015250565b7f416363657373436f6e74726f6c3a206163636f756e7420000000000000000000600082015250565b7f45524332303a2064656372656173656420616c6c6f77616e63652062656c6f7760008201527f207a65726f000000000000000000000000000000000000000000000000000000602082015250565b7f206973206d697373696e6720726f6c6520000000000000000000000000000000600082015250565b7f416363657373436f6e74726f6c3a2063616e206f6e6c792072656e6f756e636560008201527f20726f6c657320666f722073656c660000000000000000000000000000000000602082015250565b7f45524332303a206d696e7420746f20746865207a65726f206164647265737300600082015250565b612d6c816127cb565b8114612d7757600080fd5b50565b612d83816127e9565b8114612d8e57600080fd5b50565b612d9a816127f3565b8114612da557600080fd5b50565b612db18161283f565b8114612dbc57600080fd5b5056fea26469706673582212200d3a71ba76163d29dad3a6f3b66022d915b3629f92fbcf44d047cf2c4777517d64736f6c63430008040033",
  "immutableReferences": {},
  "source": "// SPDX-License-Identifier: MIT\npragma solidity 0.8.4;\n\nimport \"@openzeppelin/contracts/access/AccessControl.sol\";\nimport \"@openzeppelin/contracts/token/ERC20/ERC20.sol\";\n\n/// @title A vault to safely keep ether and issue a corresponding ERC20 token\n/// @author Abdul-Azeez Lawal\ncontract EtherVault is ERC20, AccessControl {\n    bytes32 public constant MINTER_ROLE = keccak256(\"MINTER_ROLE\");\n    bytes32 public constant BURNER_ROLE = keccak256(\"BURNER_ROLE\");\n\n    //May be better to use oracle if this is deployed to mainnet\n    uint256 public rate = 10;\n    mapping(address => uint256) private vault;\n\n    constructor(address[] memory minters, address[] memory burners)\n        ERC20(\"Vault\", \"ETV\")\n    {\n        for (uint256 i = 0; i < minters.length; ++i) {\n            _setupRole(MINTER_ROLE, minters[i]);\n        }\n\n        for (uint256 i = 0; i < burners.length; ++i) {\n            _setupRole(BURNER_ROLE, burners[i]);\n        }\n    }\n\n    event VaultActivated(address indexed accountAddress, uint256 weiAmount);\n    event VaultLiquidated(address indexed accountAddress, uint256 weiAmount);\n\n    /// @notice check if an address has enough wei balance\n    /// @param accountAddress is the address of the account\n    /// @param amount is the wei amount to validate\n    modifier hasEtherInVault(address accountAddress, uint256 amount) {\n        require(vault[accountAddress] >= amount, \"Insufficient ether balance\");\n        _;\n    }\n\n    /// @notice receive wei and send corresponding ETV to the sender\n    function activateVault() external payable {\n        vault[msg.sender] += msg.value;\n\n        //send Vault Token\n        uint256 vaultToken = msg.value * rate;\n        _mint(msg.sender, vaultToken);\n\n        emit VaultActivated(msg.sender, msg.value);\n    }\n\n    /// @notice Use to withdraw ether saved in the vault\n    /// @param amount provided is expect to be the wei amount to withdraw\n    function liquidateVault(uint256 amount)\n        public\n        payable\n        hasEtherInVault(msg.sender, amount)\n    {\n        vault[msg.sender] -= amount;\n\n        transfer(address(this), amount * rate);\n\n        (bool sent, ) = msg.sender.call{value: amount}(\"\");\n\n        require(sent, \"Failed transfer\");\n\n        emit VaultLiquidated(msg.sender, amount);\n    }\n\n    /// @notice check the balance of caller\n    /// @return wei balance of the account\n    function vaultBalance() external view returns (uint256) {\n        return vault[msg.sender];\n    }\n\n    /// @notice check the balance of the provided account\n    /// @param accountAddress is the account to check vault balance of\n    /// @return wei balance of the account\n    function vaultBalanceOf(address accountAddress)\n        external\n        view\n        returns (uint256)\n    {\n        return vault[accountAddress];\n    }\n\n    /// @notice check the ether balance of the contrace\n    /// @return wei balance of the contract\n    function contractBalance() external view returns (uint256) {\n        return address(this).balance;\n    }\n\n    /// @notice mints the vaults token to a specified address\n    /// @param to is the account to mint to\n    /// @param amount it the amount of ETV to mint\n    function mint(address to, uint256 amount) public onlyRole(MINTER_ROLE) {\n        // Only minters can mint\n        _mint(to, amount);\n    }\n\n    /// @notice burn the  vault token at a specified address\n    /// @param from is the account to burn from\n    /// @param amount it the amount of ETV to mint\n    function burn(address from, uint256 amount) public onlyRole(BURNER_ROLE) {\n        // Only burners can burn\n        _burn(from, amount);\n    }\n}\n",
  "sourcePath": "/Users/renaissance/Projects/EtherVault/contracts/EtherVault.sol",
  "compiler": {
    "name": "solc",
    "version": "0.8.4+commit.c7e474f2.Emscripten.clang"
  },
  "schemaVersion": "3.4.4",
  "updatedAt": "2022-01-15T12:08:58.477Z",
  "networkType": "ethereum",
  "devdoc": {
    "author": "Abdul-Azeez Lawal",
    "kind": "dev",
    "methods": {
      "allowance(address,address)": {
        "details": "See {IERC20-allowance}."
      },
      "approve(address,uint256)": {
        "details": "See {IERC20-approve}. Requirements: - `spender` cannot be the zero address."
      },
      "balanceOf(address)": {
        "details": "See {IERC20-balanceOf}."
      },
      "burn(address,uint256)": {
        "params": {
          "amount": "it the amount of ETV to mint",
          "from": "is the account to burn from"
        }
      },
      "contractBalance()": {
        "returns": {
          "_0": "wei balance of the contract"
        }
      },
      "decimals()": {
        "details": "Returns the number of decimals used to get its user representation. For example, if `decimals` equals `2`, a balance of `505` tokens should be displayed to a user as `5.05` (`505 / 10 ** 2`). Tokens usually opt for a value of 18, imitating the relationship between Ether and Wei. This is the value {ERC20} uses, unless this function is overridden; NOTE: This information is only used for _display_ purposes: it in no way affects any of the arithmetic of the contract, including {IERC20-balanceOf} and {IERC20-transfer}."
      },
      "decreaseAllowance(address,uint256)": {
        "details": "Atomically decreases the allowance granted to `spender` by the caller. This is an alternative to {approve} that can be used as a mitigation for problems described in {IERC20-approve}. Emits an {Approval} event indicating the updated allowance. Requirements: - `spender` cannot be the zero address. - `spender` must have allowance for the caller of at least `subtractedValue`."
      },
      "getRoleAdmin(bytes32)": {
        "details": "Returns the admin role that controls `role`. See {grantRole} and {revokeRole}. To change a role's admin, use {_setRoleAdmin}."
      },
      "grantRole(bytes32,address)": {
        "details": "Grants `role` to `account`. If `account` had not been already granted `role`, emits a {RoleGranted} event. Requirements: - the caller must have ``role``'s admin role."
      },
      "hasRole(bytes32,address)": {
        "details": "Returns `true` if `account` has been granted `role`."
      },
      "increaseAllowance(address,uint256)": {
        "details": "Atomically increases the allowance granted to `spender` by the caller. This is an alternative to {approve} that can be used as a mitigation for problems described in {IERC20-approve}. Emits an {Approval} event indicating the updated allowance. Requirements: - `spender` cannot be the zero address."
      },
      "liquidateVault(uint256)": {
        "params": {
          "amount": "provided is expect to be the wei amount to withdraw"
        }
      },
      "mint(address,uint256)": {
        "params": {
          "amount": "it the amount of ETV to mint",
          "to": "is the account to mint to"
        }
      },
      "name()": {
        "details": "Returns the name of the token."
      },
      "renounceRole(bytes32,address)": {
        "details": "Revokes `role` from the calling account. Roles are often managed via {grantRole} and {revokeRole}: this function's purpose is to provide a mechanism for accounts to lose their privileges if they are compromised (such as when a trusted device is misplaced). If the calling account had been revoked `role`, emits a {RoleRevoked} event. Requirements: - the caller must be `account`."
      },
      "revokeRole(bytes32,address)": {
        "details": "Revokes `role` from `account`. If `account` had been granted `role`, emits a {RoleRevoked} event. Requirements: - the caller must have ``role``'s admin role."
      },
      "supportsInterface(bytes4)": {
        "details": "See {IERC165-supportsInterface}."
      },
      "symbol()": {
        "details": "Returns the symbol of the token, usually a shorter version of the name."
      },
      "totalSupply()": {
        "details": "See {IERC20-totalSupply}."
      },
      "transfer(address,uint256)": {
        "details": "See {IERC20-transfer}. Requirements: - `recipient` cannot be the zero address. - the caller must have a balance of at least `amount`."
      },
      "transferFrom(address,address,uint256)": {
        "details": "See {IERC20-transferFrom}. Emits an {Approval} event indicating the updated allowance. This is not required by the EIP. See the note at the beginning of {ERC20}. Requirements: - `sender` and `recipient` cannot be the zero address. - `sender` must have a balance of at least `amount`. - the caller must have allowance for ``sender``'s tokens of at least `amount`."
      },
      "vaultBalance()": {
        "returns": {
          "_0": "wei balance of the account"
        }
      },
      "vaultBalanceOf(address)": {
        "params": {
          "accountAddress": "is the account to check vault balance of"
        },
        "returns": {
          "_0": "wei balance of the account"
        }
      }
    },
    "title": "A vault to safely keep ether and issue a corresponding ERC20 token",
    "version": 1
  },
  "userdoc": {
    "kind": "user",
    "methods": {
      "activateVault()": {
        "notice": "receive wei and send corresponding ETV to the sender"
      },
      "burn(address,uint256)": {
        "notice": "burn the  vault token at a specified address"
      },
      "contractBalance()": {
        "notice": "check the ether balance of the contrace"
      },
      "liquidateVault(uint256)": {
        "notice": "Use to withdraw ether saved in the vault"
      },
      "mint(address,uint256)": {
        "notice": "mints the vaults token to a specified address"
      },
      "vaultBalance()": {
        "notice": "check the balance of caller"
      },
      "vaultBalanceOf(address)": {
        "notice": "check the balance of the provided account"
      }
    },
    "version": 1
  }
}